:020000040800F2
:1000000090110020210200082502000827020008A4
:10001000290200082B0200082D0200080000000041
:100020000000000000000000000000002F02000897
:100030003102000800000000330200083502000809
:1000400037020008370200083702000837020008AC
:10005000370200083702000837020008370200089C
:10006000370200083702000837020008370200088C
:10007000370200083702000837020008370200087C
:10008000370200083702000837020008370200086C
:10009000DB23000837020008370200083702000897
:1000A000370200083702000837020008370200084C
:1000B000571900086F190008A51900083702000831
:1000C000370200083702000837020008370200082C
:1000D0003702000837020008AF080008A52B000807
:1000E000A13E000837020008370200083702000866
:1000F00037020008370200083702000837020008FC
:100100003702000837020008B71900083702000854
:1001100037020008370200083702000837020008DB
:1001200037020008370200083702000837020008CB
:1001300000F002F800F05FF80AA090E8000C82449A
:100140008344AAF10107DA4501D100F054F8AFF277
:10015000090EBAE80F0013F0010F18BFFB1A43F0A5
:1001600001031847ECC200000CC300000A444FF022
:10017000000C10F8013B13F0070408BF10F8014B06
:100180001D1108BF10F8015B641E05D010F8016B4B
:10019000641E01F8016BF9D113F0080F1EBF10F8AF
:1001A000014BAD1C0C1B09D16D1E58BF01F801CBD2
:1001B000FAD505E014F8016B01F8016B6D1EF9D555
:1001C0009142D6D37047000000230024002500266A
:1001D000103A28BF78C1FBD8520728BF30C148BFAA
:1001E0000B607047642908F01F80002070471FB51E
:1001F0001FBD10B510BD08F0E5F91146FFF7F7FF78
:1002000000F02AF808F003FA03B4FFF7F2FF03BC8A
:1002100000F058FA30BF72B662B680F308887047B3
:1002200008480047FEE7FEE7FEE7FEE7FEE7FEE7D9
:10023000FEE7FEE7FEE7FEE703480449044A054BF4
:100240007047000031010008900B00209011002041
:10025000900D0020900D002008B5092000F0D9F97C
:10026000482000F079F8022000F0BEF9012000F0EB
:10027000BBF900F0BBFC00F0F3FC3148006818B992
:1002800001203049087002E000202E49087000F07B
:100290002AFF4FF4FA31482000F02EFA4FF416519D
:1002A000242000F08FFA4FF4E131242002F0FFFB0C
:1002B00001F074F901F0E2F901F04AFA01F0B0FA44
:1002C00000F0D4FF01F084FB06F059FF06F06BFF4D
:1002D000002141F61F4001F0D9F8194808300068A4
:1002E00008B902F028FB01F0F9FD002006230322E3
:1002F00002210090012001F01BFE1FE0124800784F
:10030000012804D102F078FB00200F4908700F4843
:10031000007820B907F001FD07F0D8F901E007F0F7
:1003200096FD02F011F901200949087000200949E1
:10033000087000BF064800780028FBD1DEE7000007
:1003400030812142660000207B0000200400002054
:1003500065000020640000204FF0E021096921F0D1
:1003600004014FF0E0221161C21700EB5272C2F398
:10037000C702234B1A701946097801EB4102C2EB00
:10038000C1114FF6FF7202EAC1011E4A1180704787
:1003900001461B4A12784A434FF0E0235A6100227B
:1003A0009A6101221A6100BF4FF0E022106900F04B
:1003B00001021AB100F48032002AF5D000224FF079
:1003C000E0231A619A61704701460E4A12884A4337
:1003D0004FF0E0235A6100229A6101221A6100BFA6
:1003E0004FF0E022106900F001021AB100F48032EF
:1003F000002AF5D000224FF0E0231A619A6170477D
:10040000C4000020C6000020A34A0A400243A34BB8
:100410001A6070470146072323EA010212029F4B2C
:100420001B1D18684FF6FF0318409D4B18431043DF
:100430009A4B1B1D186070472DE9F041074688460E
:1004400014461D462846FFF7E5FFC5F1040007FAEC
:1004500000F60F20284100EA0800064306F00F06C8
:10046000E21704EBD2625211920002F1E022D2F8BC
:1004700000212146E31704EBD3635B11A4EB431C7B
:10048000012303FA0CF31A432046E31704EBD3636A
:100490005B119B0003F1E023C3F800218148005D5C
:1004A00040EA06107F490855BDE8F08170B5044662
:1004B0000B46CE1701EB9676C6F38700CE1701EBFD
:1004C0009676B610A1EB8606B606350E764B9B697E
:1004D00043F00103744EB3614FEAB63353F8203052
:1004E0000F26AE40B343714E46F82030334653F8E2
:1004F000203004FA05F61E436C4B43F820606C4B29
:100500001B6801268E403343694E336002F00103BD
:1005100043B1674B0C331B6801268E403343644E56
:100520000C36336002F0020343B1614B08331E689E
:1005300001238B401E435E4B08331E6070BD00B527
:10054000002059490861C860142048610020886172
:10055000C8610846006840F001000860084640682D
:1005600054490840504948600846006852490840CC
:100570004D4908600846006820F48020086008465D
:10058000406820F4FE0048600020886000214FF0A1
:100590000060FFF739FF00BD10B540480830006823
:1005A00040F004003D49083108603F48C06940F010
:1005B00080503D49C8614148406840F480703F49DF
:1005C00048600846006840F004000860084600687B
:1005D00040F002000860FFF71DFE10BD3048001D0E
:1005E0002E49091D08607047014649062E4A926946
:1005F00042F001022C4B9A612C4A083A526822F0D0
:10060000E0622A4B083B5A601A4652680A435A6015
:10061000704730B504460025FFF791FF2248006877
:1006200040F480302049086000BF1F480068400C3B
:100630000028FAD04FF480601B494860A01EC4B265
:100640000846406840EA844048600846406840F4F4
:10065000803048601A48006840F03200184908604D
:100660001148006840F080700F49086000BF0E48D4
:100670000068400E0028FAD00B48406840F00200A5
:100680000949486005E008484068C0F3870505F05F
:100690000305022DF7D130BD80FFFF1F08ED00E0FC
:1006A0000000FA0500E400E00010024008000140EC
:1006B000000401400000FFF8FFFFF6FE007000405C
:1006C00000200240014600BF704700BFF94A12886F
:1006D00002F04002002AF9D0C2B2F64B1B1D1A806C
:1006E0007047F549088000BFF349091F098801F0E8
:1006F00040010029F8D070472DE9F05F05460E460D
:1007000030010AF02DF88146EC4905FB01F00AF0B2
:1007100027F88246494609F0D9FE0746384609F0CF
:10072000E7FF84B220460AF01BF8834639460AF0F8
:100730005CF982464FF083410AF05AF8814609F08D
:10074000D7FF80464FF6FF7000EA041404EB080060
:1007500084B2DB48806940F00400D94988610846CA
:10076000806940F480408861D648006820F47F604A
:10077000D44908600846006840F40B600860D0481F
:10078000C06840F48040CE49C8600846C06820F484
:100790008040C860C848001D0480001D008842F2E7
:1007A0000C010843C44908310880BDE8F09FC149E5
:1007B000091D088000BFBF49098801F040010029D8
:1007C000F9D070472DE9F05F05460E46300109F07B
:1007D000C7FF8146B94905FB01F009F0C1FF824618
:1007E000494609F073FE0746384609F081FF84B296
:1007F000204609F0B5FF834639460AF0F6F88246EE
:100800004FF0834109F0F4FF814609F071FF804603
:100810004FF6FF7000EA041404EB080084B2A84805
:10082000806940F00400A64988610846C06940F428
:100830000030C861A348001F006820F47F40A14930
:10084000091F08600846006840F40B4008609D4896
:100850000830006840F480609A4908310860984880
:10086000006940F48020964908610846006920F438
:10087000802008618F4808300480001D008842F203
:100880000C0108438B490C3108800846008840F46D
:10089000807008800846008840F02000088002230D
:1008A000262201210020FFF7C7FDBDE8F09F2DE9BA
:1008B000FF5F8048008800F0200000287ED07D483F
:1008C000001D008880490860084600684B2803D155
:1008D00001207E4908700AE07B480068492803D05F
:1008E000794800684A2802D1002078490870784881
:1008F000007800284DD175480078D0B9724800685A
:10090000412809DB70480068482805DC6E480078FB
:100910004038704908703CE06B480068082804DCE7
:10092000694800786B49087033E000206949087015
:100930002FE06648007801282BD1634800684328DF
:1009400006D10020644908700120644908700FE056
:100950005D480068472806D101205F4908700020E3
:100960005E49087004E000205B4908705B4908702C
:1009700055480068412803D053480068452805D1F0
:100980005148007840385349087002E0002051492E
:1009900008704D4800687B2802D10120504908703A
:1009A000494800687D2802D102204D4908704C4812
:1009B000007801280CD14448007800E078E04949EB
:1009C000494A1278885448480078401C46490870C3
:1009D0004348007802286BD14248C078502803D1A0
:1009E000012042490870ABE03E48C078572803D147
:1009F00001203F490870A3E03A484078232858D0A6
:100A0000394800783B49087034E037490978394A59
:100A10001278881A09F049F9804642460B460020B0
:100A2000354908F07BF904460D4632490978491EDC
:100A30002C4A515CA1F1300009F037F906462246F4
:100A40002B4609F099F982468B462C48006809F03C
:100A5000A3FC52465B46CDE9000108F0A7FECDE9B4
:100A6000020108F071FE2549086022480078401E06
:100A7000204908701F4800780428C6DA19484078D1
:100A8000303809285BD2DFE800F0050C3F44494EBE
:100A9000535859001948006809F00EFE18490860BB
:100AA0004DE01648006809F007FE1649086046E068
:100AB00053E045E0004400400438014040420F004C
:100AC0000010024004080140CC0000208C000020EF
:100AD000660000200200002000000020010000202D
:100AE000D000002030020020D10000207A00002039
:100AF0007B000020D200002000002440D400002011
:100B0000BC000020C00000202C4800682C49086070
:100B100015E02A4800682B49086010E02748006863
:100B2000294908600BE0254800682849086006E06C
:100B3000224800682649086001E000E000BF00BFCD
:100B400000202449087024490870244908701B4972
:100B500008603221224807F0D5FB002004B0BDE830
:100B6000F09F20480078F8B11F4800685A281BD031
:100B700000201C4A10701C480068012806DB1A4837
:100B80000068082802DC184801780BE01648006865
:100B9000412807DB14480068482803DC1248007825
:100BA0004038C1B2084670470F4800685A2802D141
:100BB00001200C4A10700020F5E70000D40000204E
:100BC000A8000020AC000020B0000020B4000020ED
:100BD000B8000020D0000020D1000020D20000206A
:100BE00030020020D8000020CC0000201748806987
:100BF00040F00800154988611548006820F470002D
:100C0000134908600846006840F440100860104826
:100C10000830006840F400500D4908310860704702
:100C200018B900210B4A11600FE00B490968491CF3
:100C3000094A1160814208D106490968C943074A37
:100C4000C2F8B4110021044A11607047001002403C
:100C5000040C0140B4812142DC00002000802142CC
:100C60005948806940F00800574988615748006832
:100C700057490840554908600846006855490843E7
:100C80005249086051480830006840F480504F498C
:100C9000083108600846006840F4804008607047EA
:100CA00001464D48006828B94C480088401C4B4A12
:100CB000108002E00020494A10804748006828B9A7
:100CC0004748007810B90120454A1070454800781F
:100CD000B0B943480078012807D143480078401C48
:100CE000414A107001203F4A10703F4800780228A6
:100CF00006D100203C4A10703C4A10800220704708
:100D000035480068012804D10020354A1070354A62
:100D100010703548007801281CD134480088401CE8
:100D2000324A10801046008888420ADD2B4800882D
:100D3000884206DA00202C4A10702C4A10800120CC
:100D4000DDE726480088884204DD0020264A10702E
:100D5000264A10800020D2E72548007838B11E4886
:100D6000006820B9002022490870012070471A4805
:100D70000068012801D11E4908700020F6E71D48CF
:100D8000008840B91448006828B91B480088401CF6
:100D90001949088002E00020174908801648008899
:100DA000C82807DD01201349088000201249088067
:100DB000012070470F480088012802D100200D490A
:100DC00008800020F5E7000000100240040C0140FC
:100DD000FFFFF0F00000080838812142E600002003
:100DE000E0000020E1000020E2000020E4000020FC
:100DF000E8000020EC000020EA00002010B50A46C0
:100E00001AB10123FE4C236002E00023FC4C236056
:100E1000002116E00023FA4C3434236000F08003F4
:100E20001BB10123241D236003E00023F44C38345C
:100E300023600123F24C343423604306180E4B1C0C
:100E4000D9B20829E6DB0123ED4C236010BD30B593
:100E500000241CE004F1B001C8B20021FFF7CEFF6E
:100E600000210846FFF7CAFF00211020FFF7C6FF48
:100E7000002508E0E34901EBC501085D0121FFF70A
:100E8000BDFF681CC5B2802DF4DB601CC4B2082C09
:100E9000E0DB30BD00B500218D20FFF7AFFF002162
:100EA0001420FFF7ABFF0021AF20FFF7A7FF00BD25
:100EB00000B500218D20FFF7A1FF00211020FFF7D2
:100EC0009DFF0021AE20FFF799FF00BD30B5002443
:100ED0000CE0002506E00020CA4901EBC5010855D9
:100EE000681CC5B2802DF6DB601CC4B2082CF0DB98
:100EF000FFF7ADFF30BDF0B5144600267F2801DCBA
:100F00003F2900DDF0BD0B46CF1701EB5777FF10EF
:100F1000C7F10707FAB2CF1701EB5777FF10A1EB24
:100F2000C707FDB2C5F107070123BB40DEB24CB1D4
:100F3000B44B03EBC0039B5C3343B24F07EBC007DA
:100F4000BB5408E0AF4B03EBC0039B5CB343AD4F16
:100F500007EBC007BB5400BFD4E72DE9F04F804634
:100F60000C4615461E46A346A5F12000C5B2002733
:100F70003EE00C2E07D105EB4500A34901EB8000B4
:100F800010F8079004E0A14800EB051010F8079056
:100F90004FF0000A26E009F0800028B121464046C3
:100FA000099AFFF7A8FF09E0099808B9012000E0B5
:100FB0000020024621464046FFF79DFF4FEA496068
:100FC0004FEA1069601CC4B2A4EB0B00B04205D11B
:100FD0005C4608F1010000F0FF0806E00AF101009C
:100FE00000F0FF0ABAF1080FD5DB00BF781CC7B2CA
:100FF000B742BEDBBDE8F08F10B50246012000E02D
:1010000050430B00A1F10104E1B2F9D110BD2DE96B
:10101000FF4F81B0074691461E460E9D4FF0000AD5
:10102000002439E0301B401EC1B20A20FFF7E4FF64
:10103000B9FBF0F00A21B0FBF1F201FB1208BAF1A2
:10104000000F16D1701EA04213DDB8F1000F0ED1B3
:101050000120AB4605EBDB71491001FB04710090E8
:10106000C8B22B4620220299FFF777FF12E04FF01B
:10107000010A0120AB4605EBDB71491001FB04714D
:101080000090C8B208F13001CAB22B460299FFF7AE
:1010900064FF00BF601CC4B2B442C3DB05B0BDE84E
:1010A000F08F78B505460E46144618E07A2D03DD1C
:1010B000002506F11000C6B23A2E04DD00200546D8
:1010C0000646FFF703FF0120009022780C233146EB
:1010D0002846FFF742FF05F10800C5B2641C2078DE
:1010E0000028E3D178BD10B54948806940F0100070
:1010F000474988610846806940F001008861454899
:101100004068C0F3130043494860084640684249BC
:101110000843404948600846006820F00F00086016
:101120000846006840F0020008603C48006840F44F
:1011300080703A4908603648006A20F0010034495E
:1011400008623748008820F001003549088033489C
:10115000006820F4807031490860002028493C3143
:1011600008606420FFF730F901202E49C1F8BC0166
:101170000021AE20FFF742FE0021D520FFF73EFE02
:1011800000215020FFF73AFE0021A820FFF736FE8D
:1011900000213F20FFF732FE0021D320FFF72EFE73
:1011A00000210846FFF72AFE00214020FFF726FE17
:1011B00000218D20FFF722FE00211420FFF71EFEE4
:1011C00000212020FFF71AFE00210220FFF716FE63
:1011D0000021A120FFF712FE0021C020FFF70EFE24
:1011E0000021DA20FFF70AFE00211220FFF706FE99
:1011F00000218120FFF702FE0021EF2014E0000013
:101200008001224262020020DAAB00084EB00008E2
:101210000010024000100140000020220070004039
:10122000306C004000002242FFF7E8FD0021D92089
:10123000FFF7E4FD0021F120FFF7E0FD0021DB20B6
:10124000FFF7DCFD00213020FFF7D8FD0021A420AE
:10125000FFF7D4FD0021A620FFF7D0FD0021AF202D
:10126000FFF7CCFDFFF732FE10BD00006D4880692E
:1012700040F004006B4988616B48006820F47000FE
:10128000694908606748806940F400706549886171
:101290000846C06840F40070C8600846C06820F482
:1012A0000070C8600846406820F440404860084626
:1012B000406840F4004048605C4800685C49084071
:1012C0005A4908600846006808600846006820F42B
:1012D00080700860081D006820F00200091D086089
:1012E0000846006820F4602008600846006840F462
:1012F000602008600846006840F4801008600846D6
:10130000006820F40060086048482830006820F435
:1013100070004649283108600846006800200860CF
:1013200042480C30006820F4700040490C310860DD
:101330000846006840F4603008603C48001D0068C2
:1013400040F001003949091D08600846006840F076
:101350000800086000BF3548001D006800F0080064
:101360000028F8D13148001D006840F004002F49E2
:10137000091D086000BF2D48001D006800F0040032
:101380000028F8D17047014628483030006820F026
:101390001F00264A30321060104600680843106073
:1013A0002248001D006840F48000204A121D106091
:1013B00000BF1E48001F006800F002000028F8D09F
:1013C0001A484830006880B270472DE9F04F87B066
:1013D0000520FFF7D8FF019008F07EFC80464FF013
:1013E0006632144B08F0C8FC0022134BCDE9020111
:1013F00008F0C2FC0022114BCDE9040108F0BCFC4E
:10140000064600220E4B08F08DFA044600220D4BD2
:1014100008F088FA824608F019FC0690069807B092
:10142000BDE8F08F00100240000801400424014094
:10143000FFFFF00066660A400000264000005940A9
:101440000000F03F0000B0405048806940F00800C4
:101450004E4988610846806940F0100088614C4818
:10146000006820F0FF004A4908600846006840F024
:10147000220008604748006820F47F004549086062
:101480000846006840F408100860704700B503463D
:101490000A46FFF7D9FF3D48806940F400503B49B8
:1014A00088610846806940F01000886139484068CA
:1014B00020F0FF00374948600846406840F0BB0014
:1014C00048600846006820F07F40086008460068D1
:1014D00040F03B40086030480380001F02802E48E7
:1014E0001438008840F060002B4914390880084601
:1014F000008840F4C0400880081D008840F060006B
:10150000091D08800846008840F4C0400880081F74
:10151000008840F00800091F08800846008840F451
:1015200000600880081D008840F00800091D088040
:101530000846008840F400600880081D008840F0DC
:101540000100091D08800846008840F0100008804E
:101550000846008840F4807008800846008840F4FF
:10156000805008800C481830008840F400400A4938
:10157000183108804FF4004007492C39088008468C
:10158000008840F00100088000BD0000001002400B
:10159000000C0140001001402C34014010B5FA4805
:1015A000406840F48070F8494860F848C06940F0ED
:1015B0000100F649C8610846806940F0040088616E
:1015C0000846806940F008008861F148006820F012
:1015D0007040EF4908600846006840F080400860AD
:1015E000EC48006820F47040EA490860084600684A
:1015F00040F4804008604FF08040808940F0010056
:101600004FF0804188810846808940F04000888101
:1016100001231C2203211846FEF70EFF00204FF085
:10162000804108854FF6FF7088850846008820F4C1
:10163000407008800846008820F060000880084656
:10164000008B40F0010008830846008B40F4807056
:1016500008830846008C20F0020008840846008CAD
:1016600020F0200008840846008940F0030008812B
:101670000846008840F00100088010BD10B5C3483E
:10168000C06940F00200C149C8610846806940F065
:1016900008008861BE48001F006820F07F40BC49F8
:1016A000091F08600846006840F088400860BA4892
:1016B000008840F00100B84908800846008840F0E2
:1016C0004000088001231D2203211846FEF7B4FEC6
:1016D0000020B1491C3108804FF6FF70091D0880B9
:1016E000AD480C38008820F44070AB490C390880B4
:1016F0000846008820F060000880A7480C30008869
:1017000040F00100A4490C3108800846008840F4EC
:1017100080700880A0481430008820F002009E49A4
:10172000143108800846008820F0200008809A487C
:10173000001F008840F003009749091F0880964861
:101740000C38008840F0010093490C39088010BD26
:1017500010B58E48C06940F004008C49C861084645
:10176000806940F0080088618A48006820F07F4066
:10177000884908600846006840F08840086087484B
:10178000008840F00100854908800846008840F044
:101790004000088001231E2203211846FEF74CFE5C
:1017A00000207E491C3108804FF6FF70091D08801B
:1017B0007A480C38008820F4407078490C39088049
:1017C0000846008820F06000088074480C300088CB
:1017D00040F0010071490C3108800846008840F44F
:1017E000807008806D481430008820F002006B493A
:1017F000143108800846008820F0200008806748DF
:10180000001F008840F003006449091F08806348F6
:101810000C38008840F0010060490C39088010BD88
:1018200010B55A48C06940F008005849C8610846D8
:10183000806940F0040088615548001F006820F06E
:10184000FF005349091F08600846006840F0440043
:101850000860C804808940F00100C90488810846F6
:10186000808940F0400088810123322203211846FC
:10187000FEF7E2FD00204A4908804FF6FF70091D7F
:10188000088047482838008820F4407044492839A7
:1018900008800846008820F0600008804048103822
:1018A000008840F001003E49103908800846008851
:1018B00040F4807008803A480838008820F0020020
:1018C0003749083908800846008820F02000088041
:1018D00033482038008840F003003149203908801F
:1018E0002F482838008840F001002D492839088009
:1018F00010BD0146022906D003290DD0042914D0B9
:10190000052924D11AE04FF08042928C10B20022B7
:101910004FF080439A841CE01F4A1832128810B29C
:1019200000221D4B18331A8013E01C4A183212880B
:1019300010B20022194B18331A800AE0184A121FFD
:10194000128810B20022164B1B1F1A8001E00020E3
:1019500000BF00BF70474FF08040008A4FF08040CA
:10196000008A20F001004FF08041088270470A4849
:10197000001D00880848001D008820F0010006496D
:10198000091D08807047000000000140001002405F
:1019900004080140000C01400C0400400C08004009
:1019A000280C0040084800880748008820F0010003
:1019B000054908807047054800880448008820F0E1
:1019C000010002490880704710080040100C0040D8
:1019D000F748806940F00800F5498861F5480068DB
:1019E00020F47F40F34908600846006840F44C50FA
:1019F0000860704710B5EF48006820F47040ED496A
:101A000008600846006840F4405008600120EA4938
:101A10000860EA48D0F82C0108B9002010BD012068
:101A2000E549091F0860FEF7B3FC0020E349C1F84F
:101A3000AC01E1488038006808B10020EEE70120E1
:101A4000FEF7A6FC0020DC49091F08600120E5E73D
:101A500010B5D848006820F47040D64908600846A0
:101A6000006840F4405008600020D349091F086016
:101A7000D249C1F8AC010120FEF78AFC0120CE4911
:101A8000091F0860CD49C1F8AC01FEF781FC10BD0B
:101A900010B50024C748006820F47040C5490860AC
:101AA0000846006840F4004008600120C249086010
:101AB000FEF76EFC0120C149C1F8A801FEF768FCE1
:101AC0000AE0601CC4B2322C03DDFFF7C1FF002026
:101AD00010BD0120FEF75CFCB74880380068002884
:101AE000EFD1B549091F08600120F1E710B50020CA
:101AF000B149091F0860AF48006820F47040AD4943
:101B000008600846006840F4405008600020AB4977
:101B1000C1F8AC010120FEF73BFC0120A649091FDA
:101B20000860FEF735FC0020A449C1F8A80110BDEB
:101B300010B50020A049091F08609E48006820F4E5
:101B400070409C4908600846006840F440500860B6
:101B500001209A49C1F8AC01FEF71AFC0120964910
:101B6000091F0860FEF714FC00209449C1F8A80181
:101B700010BD70B504468F48006820F470408D4950
:101B800008600846006840F44050086000208A4918
:101B9000091F0860002516E0E00987490860600613
:101BA000040E0120FEF7F4FB01208449C1F8A801CE
:101BB000FEF7EEFB00208049091F08600120FEF7B8
:101BC000E7FB681CC5B2082DE6DB70BD2DE9F041CE
:101BD00005460E4617469846FFF70CFF10B9012040
:101BE000BDE8F0816906080EFFF7C3FFFFF750FF5D
:101BF00018B9FFF72DFF0120F2E73046FFF7B9FFD4
:101C0000FFF746FF00240BE018F80400FFF7B1FFD0
:101C1000FFF73EFF18B9FFF71BFF0020E0E7641C49
:101C2000BC42F1DBFFF714FF0020D9E770B5054691
:101C300000246048006820F470405E49086008464F
:101C4000006840F400400860002617E000205A4970
:101C5000091F08600220FEF79BFB01205749C1F8CD
:101C6000A8016006040E54488038006808B1601C62
:101C7000C4B20220FEF78CFB701CC6B2082EE5DB56
:101C800015B1FFF733FF01E0FFF752FF204670BDAB
:101C90002DE9F04106460F4614461D46FFF7AAFE01
:101CA00010B90120BDE8F0817106080EFFF761FF51
:101CB000FFF7EEFE18B9FFF7CBFE0120F2E738463A
:101CC000FFF757FFFFF7E4FEFFF794FE012101EB5A
:101CD0004601C8B2FFF74DFFFFF7DAFE0DE0012C19
:101CE00004D10020FFF7A2FF287003E00120FFF7D6
:101CF0009DFF28706D1C601EC4B2002CEFD1FFF751
:101D0000A7FE0020CEE770B505460E460024FFF77B
:101D100071FE2846FFF72DFF641CFFF7B9FE304621
:101D2000FFF727FF641CFFF7B3FEFFF763FE691C94
:101D3000C8B2FFF71EFF641CFFF7AAFE0020FFF7E2
:101D400075FF0446FFF784FE204670BD2DE9F04183
:101D50000746884615461E460024FFF74BFE3846C8
:101D6000FFF707FFFFF794FE4046FFF702FFFFF77C
:101D70008FFEFFF73FFE791CC8B2FFF7FAFEFFF7B0
:101D800087FE00BF0DE0681EA04204D00120FFF7CF
:101D90004DFF305503E00020FFF748FF3055601C31
:101DA000C4B2AC42EFDBFFF753FE2046BDE8F08142
:101DB00000100240040C0140AC812142008021420D
:101DC0002DE9F04180460D4616461F460024FFF7D8
:101DD00011FE4046FFF7CDFEFFF75AFE2846FFF7FB
:101DE000C8FEFFF755FE00BF06E0385DFFF7C1FEF5
:101DF000FFF74EFE601CC4B2B442F6DBFFF728FECC
:101E00000120BDE8F08170B505460E461446314606
:101E10002846FFF778FF2070012070BD37B50446D3
:101E20000D4602AB012229462046FFF7C9FF3EBD01
:101E30002DE9F8430746884614461D46089E6A4623
:101E400041463846FFF7DFFF28B3601CFF2101FA47
:101E500000F0C4F108012944491EFF220A41104341
:101E600000F0FF09C5F1080006FA00F0C6B2C4F19F
:101E7000070006419DF8000000EA090000909DF867
:101E80000000304300909DF8002041463846FFF79F
:101E9000C5FFBDE8F8830020FBE7F8B506460F460E
:101EA00014461D466A4639463046FFF7ACFF2DB151
:101EB0000120A0409DF80010084305E00120A0404B
:101EC0009DF8001021EA0000C0B200909DF80020AB
:101ED00039463046FFF7A2FFF8BD000010B51248A2
:101EE000806940F00800104988611048006820F0BF
:101EF00070400E4908600846006840F000400860E5
:101F00000A480830006840F4004008490831086079
:101F100001220F211046FEF7C9FA022328220121CF
:101F20001846FEF789FA10BD00100240040C01406B
:101F30002DE9F04704460D4616461F46DDF8209071
:101F40004FF0000814B10DB106B117B90120BDE87A
:101F5000F087601EC4B2681EC5B2701EC6B2781E7D
:101F600087B2FE48806940F00100FC49886108465C
:101F7000806940F0080088610846C06940F0007040
:101F8000C861F748006820F0FF00F549086008467E
:101F9000006840F0B8000860F1480830006840F47C
:101FA0004070EF4908310860EE48406840F48040D6
:101FB000EC4948600020EC4908600846006840F0A1
:101FC0000100086008E008F101001FFA80F8B8F18C
:101FD000640F01DD0220BAE7E348001D006800F04D
:101FE00001000028EFD0E0480068DF49086008469B
:101FF000006808600846006808600846006840F00D
:10200000100008600846006808600846006808601C
:102010000020D5491C3108600846006840EA8970F4
:1020200008600846006840EA0460086008460068E6
:1020300040EA055008600846006840EA064008602B
:102040000846006838430860C748006820F001006F
:10205000C549086009E008F101001FFA80F84FF651
:10206000F070804501DD032071E7BF48001D006866
:1020700000F001000028EED1BC48006840F00100EB
:10208000BA490860B9481C30006820F00100B7491F
:102090001C310860B5480C30006840F00100B349BD
:1020A0000C310860B148001D0068B049091D086086
:1020B000AE4814300068AD49143108600020AB49C7
:1020C000403108600021A94844300160A7481C3015
:1020D000006840F00100A5491C310860A348006871
:1020E0000020A2490860A0481430006840F00200B7
:1020F0009D49143108600223142200210120FEF7BB
:102100009BF9002023E7F0B505460E46059C96484E
:102110000830006800F0806008B1002111E09248AA
:102120000830006800F0006008B1012109E08E4825
:102130000830006800F0805008B1022101E0FF2063
:10214000F0BD00278948803800EB011007601EB9F8
:10215000C5F30A056D0502E025F06045ED008348F2
:10216000803800EB011000682843804F803F07EB68
:10217000011738607D48803800EB0110006840EAA4
:1021800086077A48803800EB01100760774880386E
:1021900000EB0110006840EA42077448803800EB09
:1021A0000110076003F00F037048803800EB011046
:1021B000406820F00F076D48803800EB0110476041
:1021C0006A48803800EB011040681843674F803F31
:1021D00007EB01177860E0790006A77940EA07402D
:1021E000677940EA0727207907436048803800EB89
:1021F0000110C760E0780006A77840EA07406778DA
:1022000040EA072027783843584F803F07EB0117F3
:10221000B8605648803800EB0110006840F00107B4
:102220005248803800EB01100760084688E70146F5
:10223000002021B1012916D002293CD127E04A4AC9
:102240000832126802F001021043474A083212684D
:1022500002F002021043444A0832126802F080621F
:1022600040EA126029E0404A0832126802F0010296
:1022700010433D4A0832126802F0020210433A4A03
:102280000832126802F0006240EA526015E0364AF5
:102290000832126802F001021043334A0832126811
:1022A00002F002021043304A0832126802F08052F3
:1022B00040EA926001E0052000BF00BF7047014680
:1022C00029B929480C30006800F003007047012943
:1022D00005D125481030006800F00300F6E7002023
:1022E000F4E7F0B5DDE90554204E503E06EB00164C
:1022F000366806F00406167016783EB91B4E503E3E
:1023000006EB00163668760D0E6006E0174E503E5E
:1023100006EB00163668F6080E60144E503E06EBCB
:102320000016366806F002061E70104E503E06EB90
:102330000016766806F00F062E700C4E503E06EB27
:102340000016B6682670094E503E06EB0016B668B9
:10235000360A6670054E503E0AE00000001002404A
:10236000040C014000000140006400400066004091
:1023700006EB0016B668360CA670D24E06EB0016B9
:10238000B668360EE670CF4E06EB0016F66826717C
:10239000CC4E06EB0016F668360A6671C94E06EB9F
:1023A0000016F668360CA671C64E06EB0016F668E7
:1023B000360EE67130B9C44E366846F02006C24F7C
:1023C0003E6009E0012807D1BF4E361D366846F051
:1023D0002006BD4F3F1D3E60F0BD10B58AB0BBA1C9
:1023E00003C9CDE9040102A806A907AB08AACDE9F3
:1023F000001009A90020FFF774FF00240FE0072C4C
:1024000004D102A8005DB34908700AE002A8005D8B
:1024100004A9095D884200D003E0601CC4B2072C07
:10242000EDDD00BF40F221110998884207D1A9488B
:10243000007820B1A84802990160039941600AB070
:1024400010BDF8B505460E4600243346002211465D
:1024500040F201600095FFF756FE074601E0601C60
:1024600084B23846FFF7E3FE072803D040F6FF703A
:102470008442F4DB40F6FF70844201DB0120F8BDAA
:102480000020FCE710B586B004460020FFF717FFD8
:1024900010B9002006B010BD02A803AB04AA05A91C
:1024A000CDE900040020FFF71CFF0598122805D194
:1024B0009DF8100010B99DF80C0008B100200290A2
:1024C0009DF80800E6E7F8B505460E4600243346B9
:1024D0000022114640F201700095FFF714FE0746F6
:1024E00001E0601C84B23846FFF7A1FE072803D044
:1024F00040F6FF708442F4DB40F6FF70844201DB5B
:102500000120F8BD0020FCE7F8B506460D46002482
:1025100008230022114630460095FFF7F4FD0746D8
:1025200001E0601C84B23846FFF781FE072803D023
:1025300040F6FF708442F4DB40F6FF70844201DB1A
:102540000120F8BD0020FCE72DE9FC5F634800682E
:10255000002801DD002406E060480068002801DA58
:10256000022400E001245E480068002801DD002507
:1025700006E05B480068002801DA022500E001253A
:1025800058480068002801DD002606E0554800682C
:10259000002801DA022600E00126534800680028DE
:1025A00001DD002706E050480068002801DA022714
:1025B00000E001274D494E48006808F019F94D49DF
:1025C000009007F015FF019008F092F81FFA80F8CC
:1025D00046494948006808F00BF94649009007F061
:1025E00007FF019008F084F81FFA80F93F4943483B
:1025F000006808F0FDF83F49009007F0F9FE0190EF
:1026000008F076F81FFA80FA3D48808800F500400F
:102610001FFA80FB3B48007808B9012000E0002049
:102620003849087008460078C8B94FEA282036496A
:10263000087081F801804FEA2920887081F80390A2
:102640004FEA2A20087181F805A04FEA2B208871F3
:1026500081F807B04FF48070FFF756FF30E01F4954
:102660000868002801DB014600E04142264A11705B
:10267000104644701A490868002801DB014600E052
:102680004142214A91701046C570164908680028D9
:1026900001DB014600E041421B4A117110464671C0
:1026A00011490868002801DB014600E04142164A52
:1026B00091711046C771014640F20110FFF724FFE7
:1026C000BDE8FC9FB06500400C6400400A0C0F138D
:1026D000181E250077000020670000200800002059
:1026E0000C00002010000020140000200000C84250
:1026F000900000200060EA4694000020980000202E
:10270000CC010020EE0000207C000020D048D14900
:102710004860D14848607047CE48006940F080006A
:10272000CC4908617047CB48C16801F0010008B18D
:102730000120704701F0040008B10220F9E701F020
:10274000100008B10320F4E70020F2E770B504465A
:1027500000BFFFF7E8FF0546012D00D006E001208D
:10276000FDF716FE601E84B2002CF2D100BF04B942
:10277000FF25284670BD70B50546002445F6FF705C
:10278000FFF7E4FF0446C4B9B248006940F0020014
:10279000B049086108464561006940F040000861A1
:1027A00045F6FF70FFF7D2FF0446012C05D0A9487B
:1027B000006920F00200A7490861204670BD70B58D
:1027C00005460E46FF20FFF7C1FF044694B9A14815
:1027D000006940F001009F4908612E80FF20FFF74B
:1027E000B5FF0446012C05D09A48006920F001008D
:1027F00098490861204670BD0146088870472DE958
:10280000F04105460E461746002407E036F814103E
:102810002846FFF7D4FFAD1C601C84B2BC42F5DB38
:10282000BDE8F08130B503460C461546002207E0AE
:102830001846FFF7E1FF24F812009B1C501C82B2DF
:10284000AA42F5DB30BD2DE9F05F80468A46174687
:10285000B8F1006F02D38148804501D3BDE8F09FF5
:10286000FFF754FFA8F1006B4FEA9B25CBF3480913
:10287000C9F50074A74200DC3C464EE04FF0006111
:1028800001EB85208A147649FFF7CCFF00260BE088
:1028900009EB0600724931F810004FF6FF718842CB
:1028A00000D003E0701C86B2A642F1DB00BFA64256
:1028B0001BDA4FF0006101EB8520FFF75CFF00267B
:1028C00008E03AF8160006EB0901654A22F8110003
:1028D000701C86B2A642F4DB4FF0006101EB85204C
:1028E0008A145F49FFF78BFF04E0224651464046B9
:1028F000FFF785FFA74200D110E06D1C4FF00009E3
:102900000AEB440A08EB4408381B87B2B7F5007F8E
:1029100002DD4FF4007400E03C46AFE700BFFFF774
:10292000FBFE00BF9AE713B50446012201A9204629
:10293000FFF789FF1CBD10B50A224A494A48FFF734
:1029400071FF484800884FF6FF7188422DD14548F5
:102950004088884229D143488088884225D141480F
:10296000C088884221D13F48008988421DD13D4816
:102970004089884219D13B488089884215D11E2060
:102980003A49086040F6B8303949086039483A4950
:10299000086000203949086039483A4908603A48D7
:1029A0003A4908603A49086025E02E4800882F49D6
:1029B00008602C4840882E4908602A49888807F01A
:1029C000CFFE2D4908602749C88807F0C9FE2B496A
:1029D00008602449088907F0C3FE2A490860214994
:1029E000488907F0BDFE294908601E49888907F01B
:1029F000B7FE2749086010BD10B51C48008825495E
:102A000008801B48008848801B48006807F070FE5B
:102A1000204988801948006807F06AFE1D49C8806F
:102A20001848006807F064FE1A49088117480068D2
:102A300007F05EFE174948811548006807F058FE08
:102A4000144988810A220848FFF7FDFE10BD0000E6
:102A50002301674500200240AB89EFCD000001084B
:102A6000620600200802002000E00008BC000020F0
:102A7000C00000200000A041A8000020AC00002001
:102A800000004843B000002000004041B400002096
:102A9000B80000201C0200206849088000BF674978
:102AA000091F098801F040010029F8D070472DE97D
:102AB000F05F05460E46300107F052FE8146604940
:102AC00005FB01F007F04CFE8246494607F0FEFC8C
:102AD0000746384607F00CFE84B2204607F040FE59
:102AE0008346394607F081FF82464FF0834107F065
:102AF0007FFE814607F0FCFD80464FF6FF7000EA3E
:102B0000041404EB080084B24E48806940F00100D0
:102B10004C4988610846806940F010008861084689
:102B2000C06940F48020C8614748406820F47F4075
:102B3000454948600846406840F40B4048600846F4
:102B4000C06840F48060C8604048406840F01000B1
:102B50003E4948603B48006940F48020394908619B
:102B60000846006920F4802008613448001D048074
:102B7000001D008842F20C010843304908310880EA
:102B80000846008840F4807008800846008840F0BD
:102B9000200008800223272201210020FDF74CFCA1
:102BA000BDE8F09F10B52548001F008800F0200008
:102BB000002841D02648007850B926480078401CAB
:102BC000C0B2244908700A2802DD0120204908709B
:102BD0001A480088C4B2204607F0C2FD1E490860AA
:102BE0001E48007868B91E480078FE2809D11D48A3
:102BF0000078FF2805D101201849087000201A49E3
:102C000008701648007801280FD11848164909782D
:102C1000445415480078401C134908700846007851
:102C2000082802D100200D4908700D4800780D4990
:102C300008700B48047000BF002010BD044800401D
:102C400040420F000010024000100140000001400F
:102C500078000020F20000206000002079000020B1
:102C6000F0000020F1000020EF0000206F000020A5
:102C70002DE9F04704460E461546FE49284607F062
:102C8000B7FD824684F000493146484607F0B0FB64
:102C90008046514607F0B4FE074607F00DFDF649A1
:102CA0000860F449284607F0A3FD804631462046D7
:102CB00007F09EFB8146414607F0A2FE074607F05B
:102CC000FBFCEE490860EB49284607F091FD82467F
:102CD00084F000493146484607F08AFB8046514659
:102CE00007F086FB074607F0E7FCE5490860E14985
:102CF000284607F07DFD80463146204607F078FBE8
:102D00008146414607F074FB074607F0D5FCDD49D4
:102D10000860BDE8F0872DE9F04704460E461546E9
:102D2000D449284607F064FD824684F000493146C4
:102D3000484607F05DFB8046514607F061FE0746B6
:102D400007F0BAFCD0490860CA49284607F050FD90
:102D500080463146204607F04BFB8146414607F04E
:102D60004FFE074607F0A8FCC8490860C14928463D
:102D700007F03EFD824684F000493146484607F0A0
:102D800037FB8046514607F033FB074607F094FCBB
:102D9000BF490860B749284607F02AFD80463146FA
:102DA000204607F025FB8146414607F021FB0746F8
:102DB00007F082FCB7490860BDE8F08770B50446AB
:102DC0000020002C06DD2518B34E35800025B34EBB
:102DD000356007E004F5E1552D1AAF4E3580012529
:102DE000AE4E3560002909DDC1F5E1552D1AAA4E18
:102DF000361D35800125AA4E356007E04D42054459
:102E0000A54E361D35800025A54E3560002A0ADD09
:102E1000C2F5E1552D1AA04E0836358001259F4E8A
:102E2000361D356008E0554205449B4E0836358016
:102E300000259A4E361D3560002B08DD1D18964E74
:102E40000C3635800025964E361D356009E003F5B9
:102E5000E1552D1A904E0C3635800125904E361DC9
:102E6000356070BD8F4909684242914202DA4142A1
:102E70008C4A11608B490968814201DD89490860EB
:102E8000894909684242914202DA4142864A116008
:102E900085490968814201DD8349086083490968E1
:102EA0004242914202DA4142804A11607F490968F8
:102EB000814201DD7D4908607D49096842429142B5
:102EC00002DA41427A4A116079490968814201DD9A
:102ED0007749086070472DE9F05F04460D46601B96
:102EE000744908600846006807F022FC834672486F
:102EF0000168584607F07CFC80466E4909686F4AB5
:102F00001268881A07F014FC83466D480168584619
:102F100007F06EFC8146414607F06AFA07466948A9
:102F2000006807F005FC8246394607F061FA06465C
:102F300007F0C2FB6349086008460068B0F5E15F2E
:102F400002DD4FF4E15008605E48006810F5E15F73
:102F500002DA5D485B4908605648006857490860D6
:102F600058480068BDE8F09F2DE9F05F04460D4623
:102F7000601B564908600846006807F0D9FB834685
:102F80004D480168584607F033FC80464F490968B0
:102F90004F4A1268881A07F0CBFB834648480168FD
:102FA000584607F025FC8146414607F021FA0746BE
:102FB0004848006807F0BCFB8246394607F018FA1B
:102FC000064607F079FB4349086008460068B0F5FB
:102FD000E15F02DD4FF4E15008603E48006810F503
:102FE000E15F02DA38483B490860384800683849F0
:102FF000086038480068BDE8F09F2DE9F05F04469E
:103000000D46601B344908600846006807F090FBD5
:10301000834629480168584607F0EAFB80462E4956
:1030200009682E4A1268881A07F082FB83462448F2
:103030000168584607F0DCFB8146414607F0D8F9A5
:1030400007462748006807F073FB8246394607F0B9
:10305000CFF9064607F030FB2149086008460068B2
:10306000B0F5E15F02DD4FF4E15008601C480068F4
:1030700038E000001058393E4C000020500000207D
:103080005400002058000020280000202C000020C0
:1030900030000020340000203434014090012242EE
:1030A000808121423C00002040000020440000209C
:1030B0004800002030010020B80000203801002026
:1030C000B400002034010020E0E3FFFF24010020D1
:1030D0002C010020280100201801002020010020E0
:1030E0001C01002010F5E15F02DAFE48FE4908608D
:1030F000FE480068FE490860FB480068BDE8F09F94
:103100002DE9F05F04460D46601BFA490860084649
:10311000006807F00DFB8346F7480168584607F042
:1031200067FB8046F3490968F44A1268881A07F079
:10313000FFFA8346F2480168584607F059FB81467A
:10314000414607F055F90746EE48006807F0F0FAE7
:103150008246394607F04CF9064607F0ADFAE949D0
:10316000086008460068B0F5E15F02DD4FF4E15009
:103170000860E448006810F5E15F02DAD948E149E7
:103180000860DC480068DD490860DE480068BDE88A
:10319000F09F30B5DC4C24684542AC4202DA444230
:1031A000D94D2C60D84C2468844201DDD64C206077
:1031B000D64C24684D42AC4202DA4C42D34D2C60CE
:1031C000D24C24688C4201DDD04C2160D04C246864
:1031D0005542AC4202DA5442CD4D2C60CC4C2468AE
:1031E000944201DDCA4C2260CA4C24685D42AC4264
:1031F00002DA5C42C74D2C60C64C24689C4201DD5B
:10320000C44C236030BD0146002901DA484200E089
:10321000084670472DE9F04F89B0BF48006807F0B5
:10322000BBF88246BD480CC8504606F0CBFF0446AA
:103230000D46BB48006807F0AFF88246B9480CC895
:10324000504606F0BFFF06460F46B748006807F035
:10325000A3F88246B5480CC8504606F0B3FF804636
:103260008946002213462046294606F0B3FC0DD1BC
:10327000002213463046394606F0ACFC06D1002247
:1032800013464046494606F0A5FC26D042464B462A
:103290004046494606F070FD32463B46CDE9040102
:1032A0003046394606F068FD22462B46CDE900013E
:1032B0002046294606F060FD8246DDE9002306F03F
:1032C00075FACDE90201DDE9042306F06FFACDE9D4
:1032D000060106F013FA964A03C20022134620465E
:1032E000294606F077FC0DD10022134630463946B8
:1032F00006F070FC06D1002213464046494606F00F
:1033000069FC12D04046494606F01EFA8246304615
:10331000394606F019FA83462046294606F014FA83
:10332000524659460790FFF7F6FC82480068FFF7BF
:103330006AFF814909684843019006F0CDFCCDE958
:1033400002017B480CC8029806F0ECFA824606F0AF
:103350007DFC079079480068FFF755FF76490968BA
:1033600000FB01FA504606F0B7FCCDE900017048B9
:103370000CC8009806F0D6FACDE9020106F066FC0A
:1033800006906F480068FFF73EFF6B4909684843A5
:10339000019006F0A1FCCDE9020165480CC8029835
:1033A00006F0C0FA824606F051FC059065480068B8
:1033B000FFF729FF604909684843019006F08CFC3B
:1033C00082465B480CC8504606F0ACFACDE90201D3
:1033D00006F03CFC049005A90EC9FFF7DAFE4E4842
:1033E000006806F0D9FF4D4A03C24D48006806F058
:1033F000D3FF4C4A03C24C48006806F0CDFF4B4A4D
:1034000003C209B0BDE8F08F2DE9F04704460D4630
:10341000601B07F08DF94C490860084601684B486D
:10342000006806F0E5FF49490860494947480068D7
:1034300007F0AAFA02D2474844490860464943487F
:10344000006807F0A1F902D24448404908604448A6
:1034500001683D48006807F0D3FA8046414801689A
:10346000404607F0C5F906463F494048006807F066
:103470002DF8824635480168504607F0B9F9804674
:10348000314801683A48006807F0B2F98146414680
:1034900006F0AEFF0746314606F0AAFF3549086040
:1034A000294800682E4908603248006807F004F98E
:1034B000BDE8F0872DE9F04704460D46601B07F094
:1034C00037F92D490860084601682C48006806F065
:1034D0008FFF2A4908601E492848006807F054FAFF
:1034E00051D24DE0E0E3FFFF1C0100201801002055
:1034F000200100200C010020B80000201401002051
:10350000B4000020100100203C00002040000020FA
:1035100044000020480000209C0000208001002082
:10352000A000002088010020A400002090010020BD
:103530009801002034000020BC0000203000002052
:103540002C000020280000206C01002074010020C5
:103550000050C34700401C460050C3C700401CC673
:1035600078010020B00000200000C842AC0000201C
:10357000A8000020700100205C01002064010020F0
:10358000FD48FE490860FE49FC48006807F0FCF869
:1035900002D2FC48F9490860FB480168FB48006812
:1035A00007F02EFA8046FA480168404607F020F9F5
:1035B0000646F849F848006806F088FF8246EF485A
:1035C0000168504607F014F98046F0480168F34856
:1035D000006807F00DF98146414606F009FF0746ED
:1035E000314606F005FFEE490860E8480068E64904
:1035F0000860EB48006807F05FF8BDE8F0872DE948
:10360000F04704460D46601B07F092F8E549086054
:1036100008460168E448006806F0EAFEE2490860EE
:10362000E249E148006807F0AFF902D2D248DE492A
:103630000860D349DC48006807F0A6F802D2D148F8
:10364000D9490860DA480168D648006807F0D8F917
:103650008046CF480168404607F0CAF80646CD4983
:10366000CD48006806F032FF8246CF4801685046D8
:1036700007F0BEF88046CB480168C848006807F0EC
:10368000B7F88146414606F0B3FE0746314606F0DC
:10369000AFFEC8490860C3480068C5490860C5480E
:1036A000006807F009F8BDE8F0872DE9F047044607
:1036B0000D46601B07F03CF8BF49086008460168EA
:1036C000BE48006806F094FEBC490860B749BB4894
:1036D000006807F059F902D2A748B8490860A8491C
:1036E000B648006807F050F802D2A648B34908600F
:1036F000B3480168B048006807F082F98046A448E2
:103700000168404607F074F80646A249A2480068DE
:1037100006F0DCFE8246A9480168504607F068F8CA
:103720008046A54801689D48006807F061F8814619
:10373000414606F05DFE0746314606F059FEA149B6
:1037400008609D4800689E4908609E48006806F031
:10375000B3FFBDE8F0872DE9F04704464FF07C5AEF
:103760004FF00109002C71D19748007809286ED2DA
:10377000DFE800F07F05122330414E5F6E0000202D
:103780009249086051469248006806F031FE90491F
:1037900008604FF001098BE051468C48006806F044
:1037A00027FE8A49086051468948006806F020FED5
:1037B000874908604FF001097AE051468348006864
:1037C00006F016FE814908600020814908604FF02C
:1037D00001096DE051467D48006806F009FE7B490D
:1037E000086051467A48006807F00AF9784908608D
:1037F0004FF001095CE000207449086051467448AC
:10380000006807F0FDF8724908604FF001094FE0C9
:1038100051466E48006807F0F3F86C49086051465D
:103820006B48006807F0ECF8694908604FF001093F
:103830003EE051466548006807F0E2F863490860D9
:103840000020634908604FF0010931E00EE110E00B
:1038500051465E48006807F0D3F85C49086051465D
:103860005B48006806F0C4FD594908604FF0010943
:103870001EE04FF000095548006806F08DFD074630
:10388000544A554B06F04EF8054605F05DFF4F498A
:1038900008604F48006806F07FFD07464D4A4E4BD2
:1038A00006F040F8054605F04FFF4949086000BFA3
:1038B00000BFB9F1000F23D14848007801280AD190
:1038C00051464748006807F09BF8454908600020CA
:1038D0004449086014E04448007801280AD1514660
:1038E0003F48006806F084FD3D49086000203D49DE
:1038F000086005E000203A4908603C483949086002
:10390000B9F1010F06D1002034490870364908701A
:103910003349086036480068404206F009FF054612
:103920002A480168284607F02FF806D23048006878
:10393000404206F0FDFE254908602D48006806F06B
:10394000F7FE054621480168284606F01DFF05D20E
:103950002748006806F0ECFE1C490860244800680F
:10396000404206F0E5FE054619480168284607F082
:103970000BF845D21E483DE000401C466401002083
:103980000050C3C700401CC6680100205C01002035
:10399000B00000200000C842AC000020A8000020B9
:1039A000600100204C010020540100200050C3475A
:1039B00058010020500100203C010020440100205B
:1039C0004801002040010020020000209C0000204F
:1039D000A0000020CDCCCCCCCCCCF03F000000200F
:1039E000A400002004010020010000206F12833B8E
:1039F000BC0000200068404206F09AFEF7490860CB
:103A0000F748006806F094FE0546F4480168284629
:103A100006F0BAFE05D2F248006806F089FEEF49CA
:103A20000860EF480068404206F082FE0546ED4817
:103A30000168284606F0A8FF06D2E948006840421F
:103A400006F076FEE7490860E548006806F070FE7B
:103A50000546E4480168284606F096FE05D2E0488F
:103A6000006806F065FEDF490860E0E0012CFCD14B
:103A7000DD4800780B286FD2DFE800F0D706163259
:103A8000425E6F8B9BB7C700D848006806F050FEB7
:103A90000546D2480168284606F0AAFCCF490860CE
:103AA0000120D3490870C1E0D048006806F040FE0C
:103AB0000546D0480168284606F09AFCCD490860C2
:103AC0000220CB490870C948006806F031FE05465F
:103AD000C2480168284606F08BFCC0490860A5E092
:103AE000C248006806F024FE0546C2480168284620
:103AF00006F07EFCBF4908600320BD49087095E0D0
:103B0000BA48006806F014FE0546BA48016828461F
:103B100006F06EFCB74908600420B5490870B34848
:103B2000006806F005FE0546AC480168284606F028
:103B30005CFFAA49086079E0AC48006806F0F8FD2F
:103B40000546A6480168284606F04FFFA3490860CD
:103B50000520A749087069E067E0A448006806F0FE
:103B6000E7FD0546A3480168284606F03EFFA14947
:103B7000086006209E4908709C48006806F0D8FD41
:103B8000054696480168284606F02FFF93490860CD
:103B90004CE09648006806F0CBFD05469548016864
:103BA000284606F022FF93490860072090490870D4
:103BB0003CE08E48006806F0BBFD05468D48016874
:103BC000284606F012FF8B490860082088490870D3
:103BD0008648006806F0ACFD054680480168284626
:103BE00006F006FC7D49086020E08048006806F089
:103BF0009FFD05467B480168284606F0F6FE794998
:103C0000086009207A49087010E07848006806F0DA
:103C10008FFD054673480168284606F0E9FB7149A7
:103C200008600A207249087000E000BF00BF6D48BC
:103C300002686A4801686F480068FFF719F8BDE834
:103C4000F087014640F25642914215DA01200022E7
:103C5000694B1A801B1D1A801B1D1A801B1D1A80A0
:103C6000664B1A60664BC3F88021644B1B1D1A60BB
:103C7000634BC3F8842100E0002070472DE9F04138
:103C800060480078002870D15F480078012846D14C
:103C90005D48C07900F0040008B9012401E04FF04C
:103CA000FF345948C07900F0020008B9012501E04D
:103CB0004FF0FF355448C07900F0010008B90126E3
:103CC00001E04FF0FF3650498A78497802EB012134
:103CD00001FB04F006F02CFD464908604A490A79C8
:103CE000C97802EB012101FB05F006F021FD3B49FB
:103CF000086045498A79497902EB012101FB06F008
:103D000006F016FD37490860084602683348016826
:103D100038480068FEF7ACFF00203C4908603A488C
:103D20000078022838D13848C07900F0080008B976
:103D3000012401E04FF0FF343348C07900F0040063
:103D400008B9012501E04FF0FF352F48C07900F098
:103D5000020008B9012601E04FF0FF362A48C07979
:103D600000F0010010B9012702E016E04FF0FF3724
:103D70002548407860432649086023488078684396
:103D8000244908602048C0787043234908601E48D1
:103D9000007978432149086070E01A4800780128CA
:103DA0006CD119480078012868D11748C07900F013
:103DB000040008B9012401E04FF0FF341248C07933
:103DC00000F0020008B9012501E04FF0FF350E4870
:103DD000C07900F0010018BB012623E0A0000020FC
:103DE000BC000020A400002002000020C000002031
:103DF000F90000209C000020343401409001224250
:103E0000008021426600002067000020040100209D
:103E10004C000020500000205400002058000020DA
:103E20004FF0FF36CA498A78497802EB012101FB3D
:103E300004F006F07DFCC7490860C5490A79C978D5
:103E400002EB012101FB05F006F072FCC24908609B
:103E5000BF498A79497902EB012101FB06F006F09E
:103E600067FCBE49086008460268BB480168B9485B
:103E70000068FEF7FDFE0020B9490860BDE8F0814A
:103E800010B56420FCF70CFF0446022C07D1B5489E
:103E9000007808B9012000E00020B249087010BD88
:103EA00070B5B148006800287DD14FF40040AF499B
:103EB0000860AF48007808B9012000E00020AC4954
:103EC0000870AC48007801280BD1AB480078401C42
:103ED000C0B2A94908700A2803D100200870A5497A
:103EE0000870A3480078012812D1A448007848B986
:103EF000A3480078012805D19548A2490A680260C4
:103F00004968416003F0B0F9FFF7BAFF002070BDC7
:103F10000220FDF7EEFC9C4908609C480068096897
:103F200008449A4908600320FDF7E3FC98490860BB
:103F30009848006809680844964908600420FDF71D
:103F4000D8FC4042944908609448006809680844D5
:103F5000924908600520FDF7CCFC4042904908607A
:103F600090480068096808448E49086003F07CF9AD
:103F70006420FCF755FEFDF728FA054606F0D8FB4D
:103F8000044689480168204606F032FA86490860EE
:103F90004FF07E518548006806F02AFA83490446AE
:103FA0000860834900E0ABE006F052FB0ED1804987
:103FB0007D48006806F08AFA044606F07DFB7D49DC
:103FC0000860002078490860784908607A480078DD
:103FD000012803D06A480078012801D1FFF74EFE7E
:103FE00076480068002806DD744800680F2802DA69
:103FF0000F20724908606F480068FFF722FE002812
:104000007ED16F48007850BB6B48007830B95C486F
:10401000007818B96A480078FFF79DFB6948016885
:1040200059480068FFF76CF86749086067480168FD
:1040300057480068FEF7E1FF654908606548016878
:1040400055480068FEF790FF6349086063480168BF
:1040500053480068FEF73FFF6149086068E0564832
:10406000007868B94648007850B95E48007818B9B9
:10407000FCF777FD5C49087051480078FFF76BFB4F
:104080005048016841480068FFF70FFB00124E4995
:1040900008604E4801683F480068FFF7B0FA001218
:1040A0004B4908604B4801683C480068FFF702FA3A
:1040B000001249490860494801683A480068FFF71A
:1040C000A3F900124649086021480078022802D06E
:1040D000FFF7A0F806E03948036802680168006845
:1040E000FFF757F838480068414227480068FFF753
:1040F00007F835490860364800684142244800E026
:1041000024E00068FEF779FF314908603248006812
:10411000414221480068FEF727FF2F4908603048D8
:10412000006841421E480068FEF7D5FE2C49086031
:1041300041F6F420FEF796FE2948036826480268F7
:104140002348016820480068FEF738FE0020DEE6BC
:10415000670000209C000020A0000020A400002098
:1041600004010020040000203C812142140401408D
:10417000F800002065000020640000207900002085
:10418000780000206F0000200800002018000020A8
:104190000C0000201C000020100000202000002047
:1041A000140000202400002000010020FC0000205A
:1041B0000000C8425C00002077000020BC00002006
:1041C000660000204C0000203C0000205000002031
:1041D000400000205400002044000020580000202F
:1041E000480000208C0000200200002038B5044662
:1041F000FB4890F82400C0B114B10220009001E007
:1042000000200090F64A1268D17BF54A5268107877
:104210006B460122FDF7DAFC10B14FF0FF3038BDDC
:104220009DF80010EE48417423E0ED48807A10B903
:104230004FF0FF30F3E724B1E948407C08B100209B
:10424000EDE714B10120009001E000200090E44A65
:104250001268D17BE24A526810786B460122FDF762
:10426000B5FC10B14FF0FF30D9E79DF80010DC48E5
:1042700041740020D3E738B5002419E0D84800681D
:10428000C07AA04204D0D6480068407DA04200D148
:104290000CE0D349496808786B4601222146FDF7B6
:1042A000F7FC10B14FF0FF3038BD00BF601CC4B246
:1042B000CB4840680079A042E0DC0020F4E770B50C
:1042C00004460D46C6480068C07AA04204D0C448DF
:1042D0000068407DA04202D14FF0FF3070BDC04861
:1042E00040680079A04202DC4FF0FF30F6E7BC499D
:1042F000496808782B4601222146FDF7C9FCEDE705
:1043000038B50446B64890F82300A04201D10020F9
:1043100038BD14B13020009001E000200090B0487A
:10432000807C20B19DF8000040F002000090AC4875
:1043300090F8220020B19DF8000040F0800000902D
:10434000A74A1268117DA64A526810786B4601226E
:10435000FDF73CFC10B14FF0FF30D9E7A04880F8E2
:1043600023400020D4E738B5044604F0700010B1B3
:104370000120009005E014B10020009001E04020F1
:104380000090974A1268917C954A526810786B4663
:104390000122FDF71BFC20B1002191488172481ECB
:1043A00038BD9DF8000020F040018D4801730020C9
:1043B000009004F0400020B99DF8000040F0040097
:1043C000009004F0200020B99DF8000040F00200A9
:1043D000009004F0100020B99DF8000040F00100AA
:1043E000009004F0080020B99DF8000040F038006B
:1043F00000907B4A1268D17C794A526810786B46EB
:104400000122FDF7E3FB20B1002175488172481EAF
:10441000C6E724B1082C02D00020FFF771FF7048D6
:104420008472002101753220FBF7CEFF0020B7E730
:1044300038B504466A48807CA04201D1002038BDCE
:10444000002C46D0664A12681179654A5268107885
:104450006B460122FDF71CFC10B14FF0FF30EEE778
:104460009DF8000020F0200000905D4A126811794C
:104470005B4A526810786B460122FDF7A7FB10B12A
:104480004FF0FF30DBE70320FBF79EFF0220009098
:10449000534890F8220020B19DF8000040F08000C1
:1044A00000904F4890F8230020B19DF8000040F0A4
:1044B000300000904A4A1268117D494A52681078CB
:1044C0006B460122FDF782FB002851D04FF0FF30F0
:1044D000B5E7434A12681179414A526810786B4631
:1044E0000122FDF7D5FB10B14FF0FF30A7E73C48A4
:1044F000807A00F0010028B19DF8000040F0200013
:10450000009004E09DF8000020F020000090344A64
:1045100012681179324A526810786B460122FDF711
:1045200055FB10B14FF0FF3089E70320FBF74CFF3C
:104530002B4890F8220010B18020009001E000206C
:104540000090274890F8230020B19DF8000040F02B
:1045500030000090224A1268117D214A526810787A
:104560006B460122FDF732FB10B14FF0FF3066E7DA
:104570001B488474002062E708B51948807A10B996
:104580004FF0FF3008BD00200090154A1268D17B23
:10459000134A526810786B460122FDF717FB10B1E1
:1045A0004FF0FF30EEE70E4A126851790C4A52681C
:1045B00010786B460122FDF709FB10B14FF0FF3078
:1045C000E0E7074A12681179054A526810786B468D
:1045D0000122FDF7FBFA28B14FF0FF30D2E70000CF
:1045E000A0010020F74890F82400002850D00C20AB
:1045F0000090F44A12681179F24A526810786B46BA
:104600000122FDF7E3FA10B14FF0FF30BAE7C02006
:104610000090EC48807A00F0010020B19DF8000085
:1046200040F020000090E74A12681179E54A52688C
:1046300010786B460122FDF7C9FA10B14FF0FF3038
:10464000A0E7E048407C10B10220009001E000208B
:104650000090DC4A1268D17BDA4A526810786B46C7
:104660000122FDF7B3FA10B14FF0FF308AE70020C6
:104670000090D44A12685179D24A526810786B4639
:104680000122FDF7A3FA002852D04FF0FF3079E75E
:1046900004200090CB4A12681179CA4A52681078F7
:1046A0006B460122FDF792FA10B14FF0FF3069E737
:1046B000C448807C20B9C348807A00F0010010B95A
:1046C0004020009001E060200090BE4A12681179FD
:1046D000BC4A526810786B460122FDF777FA10B198
:1046E0004FF0FF304EE7B748407C10B101200090FA
:1046F00001E000200090B34A1268D17BB14A5268B1
:1047000010786B460122FDF761FA10B14FF0FF30CF
:1047100038E7AC4A12685179AA4A52681078A94B16
:1047200010330122FDF752FA10B14FF0FF3029E7A4
:10473000002027E770B50446002624F00104A148B4
:1047400090F8240008B1002070BD9E48807A10B90E
:104750004FF0FF30F8E79B48057C807A204099496C
:1047600008740846007CA04202D04FF0FF3600E0FB
:10477000002614B99348007D18B10120FFF736FDDB
:1047800002E00020FFF732FD3CB1FFF7F5FE20B15B
:104790008C4805744FF0FF30D6E73046D4E738B583
:1047A00004468848807A10B94FF0FF3038BDBC2CE1
:1047B00002DB0120009015E0622C02DB0220009059
:1047C00010E02A2C02DB032000900BE0142C02DB0B
:1047D0000420009006E00A2C02DB0520009001E096
:1047E000062000907748C07A9DF80010884201D1D9
:1047F0000020DBE7734A12689178724A5268107899
:104800006B460122FDF7E2F910B14FF0FF30CDE722
:104810009DF800106B48C1720020C7E738B5044608
:10482000282C02DD4FF0FF3038BDDCB90020FFF747
:1048300067FD00208DF8000007208DF80100614A17
:104840001268917C5F4A526810786B460222FDF72D
:10485000BDF910B14FF0FF30E6E70021594801756E
:104860000020E1E70120FFF74BFD20208DF800003C
:10487000012C06D100208DF801000520FFF78FFFE5
:1048800017E0052C06DC01208DF801000520FFF75C
:1048900086FF0EE0142C06DC02208DF801000A20B1
:1048A000FFF77DFF05E003208DF801001420FFF7DE
:1048B00076FF9DF80100072101EB8010C0B28DF852
:1048C0000100404A1268917C3E4A526810786B465B
:1048D0000222FDF77BF910B14FF0FF30A4E7082169
:1048E0003848817200210173012101750020FFF712
:1048F00021FF002098E738B504463248807A10B985
:104900004FF0FF3038BD2F4890F8240010B14FF021
:10491000FF30F7E72B48007D50B134B1282C04DC80
:10492000E0B2FFF77BFF0020ECE70020FFF776FF07
:10493000042C01DA042404E0B4F57A7F01DD4FF49D
:104940007A744FF47A7090FBF4F0401EC0B200907D
:104950001C4A126851781B4A526810786B46012233
:10496000FDF734F910B14FF0FF30CBE79DF80000B0
:10497000401C4FF47A7191FBF0F081B21148C18173
:104980000146C9894810FFF70AFF0020BAE738B589
:1049900004460C48807A10B94FF0FF3038BD022C25
:1049A00006D0042C07D0082C08D0102C0FD10BE017
:1049B000002000900EE0082000900BE010200090F6
:1049C00008E00000A00100201820009002E04FF055
:1049D000FF30E3E700BFF948407A9DF80010B0EBE4
:1049E000E10F01D10020D9E7F44A1268D179F34AE6
:1049F000526810786B460122FDF7E8F810B14FF0CD
:104A0000FF30CBE79DF80000C110EC484172002058
:104A1000C4E738B50446E948807A10B94FF0FF3052
:104A200038BDFA2C09D0B4F5FA7F09D0B4F57A7FF5
:104A300009D0B4F5FA6F0CD108E0002000900BE02B
:104A40000820009008E01020009005E01820009059
:104A500002E04FF0FF30E3E700BFD848007A9DF84E
:104A60000010B0EBE10F01D10020D9E7D34A126862
:104A70009179D24A526810786B460122FDF7A6F868
:104A800010B14FF0FF30CBE79DF80000C010CB49CC
:104A900008720020C4E71CB580208DF80000C74ACA
:104AA0001268917CC54A526810786B460122FDF766
:104AB0008DF810B14FF0FF301CBD6420FBF784FC73
:104AC00000208DF80000BD4A1268917CBB4A5268F4
:104AD00010786B460122FDF779F810B14FF0FF30E6
:104AE000EAE7B64A1268917DB44A526810786B467C
:104AF0000622FDF7CDF810B14FF0FF30DCE79DF84E
:104B00000500C007400F9DF8031001F0010140EAC5
:104B100041009DF8011001F0010140EA010494B147
:104B2000012C03D10121A548C17431E0022C03D12D
:104B30000021A248C1742BE02146A1A003F034FB60
:104B40004FF0FF30B8E79D4A1268D1789B4A52680F
:104B500010786B460122FDF79BF810B14FF0FF3043
:104B6000AAE79DF8000000F00F042CB99E4803F05E
:104B70001BFB4FF0FF309FE7042C06D19BA003F0F6
:104B800013FB01218D48C17402E000218B48C174E0
:104B9000FF218A488172FF2088490872FF218748D7
:104BA0004172C1724FF6FF71C181FF21017481749E
:104BB0000121017380F82210002180F82310417533
:104BC00001751630016041608160163880F824104C
:104BD00080F82510C1844FF4FA60FFF71AFF10B176
:104BE0004FF0FF3068E70220FFF7D1FE10B14FF021
:104BF000FF3061E72A20FFF7D2FD10B14FF0FF3000
:104C00005AE73220FFF777FE10B14FF0FF3053E73D
:104C10000020FFF78FFD10B14FF0FF304CE7002070
:104C2000FFF706FC10B14FF0FF3045E70020FFF71B
:104C30009AFB002040E770477CB504460D465F486C
:104C4000807A00F0700010B94FF0FF307CBD5B4AF5
:104C50001268117B594A526810786B460622FDF79C
:104C600017F810B14FF0FF30F0E79DF801009DF804
:104C7000001040EA012000B220809DF803009DF85A
:104C8000021040EA012000B260809DF805009DF806
:104C9000041040EA012000B2A08015B12846FFF7B9
:104CA000CAFF0020D2E77CB504460D464348807A0F
:104CB00000F0080010B94FF0FF307CBD3F4A126889
:104CC000517B3E4A526810786B460622FCF7E0FFA3
:104CD00010B14FF0FF30F0E79DF801009DF8001093
:104CE00040EA012000B220809DF803009DF80210E8
:104CF00040EA012000B260809DF805009DF8041094
:104D000040EA012000B2A08015B12846FFF793FFCA
:104D10000020D2E72DE9FE4F05460C462748807A51
:104D200018B94FF0FF30BDE8FE8F244A1268917B1E
:104D3000224A5268107802AB0222FCF7A9FF10B198
:104D40004FF0FF30EFE79DF809009DF8081040EAAA
:104D5000012006B214B12046FFF76DFF17494968DC
:104D6000C88805F0FDFC154901904968B1F90800B3
:104D700005F0DEFC8346304605F0DAFC594600902B
:104D800005F03EFE8246019905F0A0FB81461F49D1
:104D900005F02EFB80464FF08F4105F029FD0746B8
:104DA00005F08AFC28600020BDE710B588B00446F5
:104DB0001CB94FF0FF3008B010BD29E0A001002061
:104DC000556E737570706F7274656420736F66745E
:104DD000776172652070726F647563742072657696
:104DE0002025642E0A00000000C4000848616C669B
:104DF0002073656E73697469766974792070617265
:104E00007420666F756E642E0D0A000000000C425F
:104E1000206830B9606820B9A06810B9002008B0D7
:104E200010BDFA494968087806AB03221146FCF721
:104E30002FFF10B14FF0FF30F1E79DF81800082167
:104E400001EB201000F00F00ADF800009DF81900F4
:104E500001EB201000F00F00ADF802009DF81A00E1
:104E600001EB201000F00F00ADF8040020684100B5
:104E7000BDF90000403091FBF0F000B2ADF8100039
:104E800060684100BDF90200403091FBF0F000B2D3
:104E9000ADF81200A0684100BDF90400403091FB5C
:104EA000F0F000B2ADF81400D8494968087806ABB4
:104EB00006221146FCF7ECFE10B14FF0FF30AEE7D2
:104EC0009DF819009DF8181040EA012000B2ADF8D5
:104ED00008009DF81B009DF81A1040EA012000B25E
:104EE000ADF80A009DF81D009DF81C1040EA012055
:104EF00000B2ADF80C00BDF81000BDF80810084471
:104F000000B2ADF81000BDF81200BDF80A10084458
:104F100000B2ADF81200BDF81400BDF80C10084442
:104F200000B2ADF81400BDF81000000A8DF81800AA
:104F3000BDF81000C0B28DF81900BDF81200000ACB
:104F40008DF81A00BDF81200C0B28DF81B00BDF834
:104F50001400000A8DF81C00BDF81400C0B28DF8D2
:104F60001D00AA494968087806AB06221146FCF7DD
:104F70002DFE10B14FF0FF3051E700204FE7014602
:104F8000A248007A30B1012807D0022809D00328AE
:104F90000FD10AE0FA2008800EE04FF4FA70088082
:104FA0000AE04FF47A70088006E04FF4FA60088057
:104FB00002E00020088000BF00BF002070470146CB
:104FC0009248407A30B1012807D0022808D003283F
:104FD0000CD108E0022008700BE00420087008E003
:104FE0000820087005E01020087002E04FF0FF3044
:104FF000704700BF8548C07C18B108784006000E95
:1050000008700020F4E701468048C07A082817D2CB
:10501000DFE800F01704070A0D101318BC20088001
:1050200013E06220088010E02A2008800DE01420A0
:1050300008800AE00A20088007E00520088004E0D4
:1050400000BF00BF0020088000BF00BF00207047E5
:1050500001466E4890F8240010B14FF0FF307047C1
:105060006A48C08908800020F9E7014600200880CE
:10507000401E704701464FF0FF30704701466348BD
:10508000007A30B1012807D0022808D003280CD1BB
:1050900008E05F4808600BE05E48086008E05E4892
:1050A000086005E05D48086002E04FF0FF3070479F
:1050B00000BF0020FBE701465448407A30B1012888
:1050C00008D002280AD0032810D10BE04FF480400A
:1050D00008800EE041F69C7008800AE04FF4805092
:1050E000088006E04FF40060088002E04FF0FF30D7
:1050F000704700BF4548C07C10B108884010088048
:105100000020F5E701464148007C08700020704708
:1051100001463E48807A10B10120087001E000206D
:1051200008700020704738B504463848807A10B9B6
:105130004FF0FF3038BD354A1268117C334A52684F
:1051400010786B460222FCF7A3FD10B14FF0FF3040
:10515000F0E79DF801009DF8001040EA012000B240
:1051600020800020E6E72DE9FE4F0746884692465C
:105170001D46DDF830B000260024244890F82400B5
:1051800010B1601EBDE8FE8F002028701F48807A95
:1051900010B94FF0FF30F5E71C48007C10B94FF014
:1051A000FF30EFE71948007C00F0400008B1B01C68
:1051B000C6B21648007C00F0200008B1B01CC6B290
:1051C0001248007C00F0100008B1B01CC6B20F48B5
:1051D000007C00F0080008B1B01DC6B20B4A12688E
:1051E000917A0A4A526810786B460222FCF750FD09
:1051F00010B14FF0FF30C5E79DF801009DF8001099
:1052000040EA0129B1450BDA0020BBE7A0010020EC
:1052100000000343000083423333034233338341AE
:10522000FC4840684088B9EB600F17DDF94A126806
:10523000517CF84A526810786B460122FCF728FD31
:1052400010B14FF0FF309DE79DF8000000F0100016
:1052500020B1FFF791F96FF0010093E75046FFF797
:10526000EAFCEC4A1268D17AEA4A526810786B4636
:105270003246FCF70DFD10B14FF0FF3082E799FB8D
:10528000F6F0401E8BF8000000202870B4422AD0AF
:10529000E048007C00F0080028B3601C1DF8000006
:1052A0001DF8041040EA012000B2A8F80000E01C3C
:1052B0001DF80010A01C1DF8000041EA002000B2FB
:1052C000A8F80200601D1DF80010201D1DF8000048
:1052D00041EA002000B2A8F80400287840F0080055
:1052E0002870A01D84B2B44213D0CA48007C00F0DC
:1052F000400070B1601C1DF800001DF8041040EA69
:10530000012000B23880287840F040002870A01CAE
:1053100084B2B44213D0BF48007C00F0200070B1CA
:10532000601C1DF800001DF8041040EA012000B2C6
:105330007880287840F020002870A01C84B2B44205
:1053400013D0B448007C00F0100070B1601C1DF850
:1053500000001DF8041040EA012000B2B88028784F
:1053600040F010002870A01C84B200200AE7F8B5B5
:1053700004460F461646A74890F8240010B94FF08F
:10538000FF30F8BDA348807A10B94FF0FF30F8E73E
:10539000A04A1268917A9F4A526810786B4602229E
:1053A000FCF776FC10B14FF0FF30EAE79DF8010002
:1053B0009DF8001040EA0125A54203DA0020307074
:1053C000401EDEE7934840684088B5EB600F17DD6C
:1053D000904A1268517C8F4A526810786B460122BD
:1053E000FCF756FC10B14FF0FF30CAE79DF8000003
:1053F00000F0100020B1FFF7BFF86FF00100C0E728
:10540000E2B2844B1B68D97A824B5B6818783B46C2
:10541000FCF73EFC10B14FF0FF30B2E795FBF4F023
:10542000401E30700020ACE701467A4880F8221018
:10543000002070477CB5054676494968087801AB7D
:1054400004220D21FCF724FC08B107207CBD9DF847
:105450000700C0F301109DF8041001F0E00140EADC
:10546000E1008DF800009DF80700C0F381009DF871
:10547000051001F0E00140EAE1008DF801009DF81F
:10548000070000F003009DF8061001F0E00140EA7B
:10549000E1008DF8020000241CE01DF8040018B99A
:1054A000002045F8240013E05B4845F8240006E09E
:1054B00055F82400594905F09BF945F824001DF8DA
:1054C0000400401EC0B20DF804000028F0D100BF57
:1054D000601CC4B2032CE0DB0020B7E72DE9FE4FCF
:1054E00006460F4600256846FFF7A4FF002442E069
:1054F00056F8240057F82410A0EB010ABAF1000F67
:1055000001DB514601E0CAF10001084605F010F93F
:1055100083464FF08F4104F0D9FF80465DF82400A8
:10552000002105F095F816D05DF82410404604F0EF
:10553000CDFF82464FF07E5105F062FA814629F098
:10554000004A3748416A504605F01EFA12D201203F
:10555000A04005430EE03248C169404605F014F909
:1055600005D32F48016A404605F00EFA02D2012009
:10557000A0400543641C032CBADB2846BDE8FE8F1F
:105580002DE9FC5F06460F46002522494968087848
:1055900001AB03220D21FCF77BFB10B10720BDE816
:1055A000FC9F9DF8040000F01F008DF804009DF89A
:1055B000050000F01F008DF805009DF8060000F0C2
:1055C0001F008DF80600002462E056F8240057F80A
:1055D0002410A0EB010BBBF1000F01DB594601E0E9
:1055E000CBF10001084605F0A3F84FF08F41009081
:1055F00004F06CFF814601A8005DC0B3084908684B
:1056000005F0AEF883465946064804F05FFF804631
:105610000FE00000A00100207B14AE3E1D5A843F25
:1056200068B6000800B04C45FE49404605F0E0F879
:10563000804601A8005D401EC0B201A9085500289F
:10564000F2D14146484604F041FF83464FF07E5177
:1056500005F0D6F982462AF0004BF3488169584696
:1056600005F092F913D20120A04005430FE0FFE7B7
:10567000ED480169484605F087F805D3EA484169D5
:10568000484605F081F902D20120A0400543641C80
:10569000032C9ADB284682E72DE9F04F87B00546B8
:1056A0000C46914601208DF8100000208DF8110065
:1056B000DE4A1268917CDD4A5268107804AB0222FF
:1056C000FCF784FA20B14FF0FF3007B0BDE8F08F4F
:1056D000C820FAF779FE00208DF81000D34A12682E
:1056E000D17BD24A5268107804AB0122FCF76EFAE3
:1056F00010B14FF0FF30E8E7CC4A12685179CB4A3D
:105700005268107804AB0122FCF760FA10B14FF038
:10571000FF30DAE7C54A1268917CC44A52681078B3
:1057200004AB0122FCF752FA10B14FF0FF30CCE786
:10573000BE4A1268D17DBD4A5268107804AB01227E
:10574000FCF744FA10B14FF0FF30BEE7B74A1268D9
:105750001179B64A5268107804AB0122FCF736FA88
:1057600010B14FF0FF30B0E70C208DF81000AF4AB9
:1057700012681179AD4A5268107804AB0122FCF727
:1057800025FA10B14FF0FF309FE70F20FAF71CFE0B
:10579000A648806A407A8DF81000A44A1268917871
:1057A000A24A5268107804AB0122FCF70FFA10B13C
:1057B0004FF0FF3089E79D48806A007A8DF810002D
:1057C0009A4A12685178994A5268107804AB0122BB
:1057D000FCF7FCF910B14FF0FF3076E7B9F1000F9C
:1057E00007D09248806A807A40F0E0008DF810007F
:1057F00004E08E48806A807A8DF810008B4A126827
:1058000091798A4A5268107804AB0122FCF7DEF9DC
:1058100010B14FF0FF3058E7B9F1000F07D08348BF
:10582000806AC07A40F0E0008DF8100003E07E4806
:10583000C07A8DF810007D4A1268D1797B4A52688F
:10584000107804AB0122FCF7C1F910B14FF0FF3022
:105850003BE7B9F1000F02D0C820FAF7B5FD4020B0
:105860008DF81000714A12681179704A52681078E8
:1058700004AB0122FCF7AAF910B14FF0FF3024E786
:1058800078208DF81000694A12685179674A526889
:10589000107804AB0122FCF799F910B14FF0FF30FA
:1058A00013E761498889FAF78FFD00208DF8100011
:1058B0005E4A126851795D4A5268107804AB012241
:1058C000FCF784F910B14FF0FF30FEE6574A12683A
:1058D000917A564A5268107804AB0222FCF7D8F944
:1058E00010B14FF0FF30F0E69DF811009DF8101058
:1058F00040EA012B0C209BFBF0F0C6B20020A86010
:1059000068602860A06060602060824665E0474A69
:105910001268D17A454A5268107804AB0C22FCF721
:10592000B7F910B14FF0FF30CFE69DF811009DF8A8
:10593000101040EA012000B2ADF808009DF81300F5
:105940009DF8121040EA012000B2ADF80A009DF85F
:1059500015009DF8141040EA012000B2ADF80C00CB
:10596000BDF90810206808442060BDF90A1060687D
:1059700008446060BDF90C10A0680844A0609DF860
:1059800017009DF8161040EA012000B2ADF80000A3
:105990009DF819009DF8181040EA012000B2ADF8FA
:1059A00002009DF81B009DF81A1040EA012000B289
:1059B000ADF80400BDF90010286808442860BDF95E
:1059C0000210686808446860BDF90410A8680844BB
:1059D000A8600AF1010000F0FF0AB24597DB124807
:1059E000D0F800C02868C117090441EA1041070433
:1059F00062460023384602F0B2FB32460023CDE96E
:105A0000020102F0ACFB28600748D0F800C06868CB
:105A1000C117090441EA10410704624600233846D1
:105A200006E0000054E3853F68B60008A0010020AE
:105A300002F095FB32460023CDE9020102F08FFB14
:105A40006860FE48D0F800C0A868C117090441EAA0
:105A50001041070462460023384602F080FB3246BC
:105A60000023CDE9020102F07AFBA860F348D0F8E8
:105A700004C02168C817000440EA11480F046246B8
:105A800000233846414602F06AFB32460023CDE946
:105A9000020102F064FB2060E848D0F804C06068AE
:105AA000C117090441EA1041070462460023384641
:105AB00002F055FB32460023CDE9020102F04FFB14
:105AC0006060DE48D0F804C0A068C117090441EA4C
:105AD0001041070462460023384602F040FB32467C
